{
  "contractName": "Wallet",
  "abi": [
    {
      "inputs": [
        {
          "internalType": "address[]",
          "name": "_approvers",
          "type": "address[]"
        },
        {
          "internalType": "uint256",
          "name": "_quorum",
          "type": "uint256"
        }
      ],
      "stateMutability": "nonpayable",
      "type": "constructor"
    },
    {
      "inputs": [
        {
          "internalType": "address",
          "name": "",
          "type": "address"
        },
        {
          "internalType": "uint256",
          "name": "",
          "type": "uint256"
        }
      ],
      "name": "approvals",
      "outputs": [
        {
          "internalType": "bool",
          "name": "",
          "type": "bool"
        }
      ],
      "stateMutability": "view",
      "type": "function",
      "constant": true
    },
    {
      "inputs": [
        {
          "internalType": "uint256",
          "name": "",
          "type": "uint256"
        }
      ],
      "name": "approvers",
      "outputs": [
        {
          "internalType": "address",
          "name": "",
          "type": "address"
        }
      ],
      "stateMutability": "view",
      "type": "function",
      "constant": true
    },
    {
      "inputs": [],
      "name": "quorum",
      "outputs": [
        {
          "internalType": "uint256",
          "name": "",
          "type": "uint256"
        }
      ],
      "stateMutability": "view",
      "type": "function",
      "constant": true
    },
    {
      "inputs": [
        {
          "internalType": "uint256",
          "name": "",
          "type": "uint256"
        }
      ],
      "name": "transfers",
      "outputs": [
        {
          "internalType": "uint256",
          "name": "id",
          "type": "uint256"
        },
        {
          "internalType": "uint256",
          "name": "amount",
          "type": "uint256"
        },
        {
          "internalType": "address payable",
          "name": "to",
          "type": "address"
        },
        {
          "internalType": "uint256",
          "name": "approvals",
          "type": "uint256"
        },
        {
          "internalType": "bool",
          "name": "sent",
          "type": "bool"
        }
      ],
      "stateMutability": "view",
      "type": "function",
      "constant": true
    },
    {
      "stateMutability": "payable",
      "type": "receive",
      "payable": true
    },
    {
      "inputs": [],
      "name": "getApprovers",
      "outputs": [
        {
          "internalType": "address[]",
          "name": "",
          "type": "address[]"
        }
      ],
      "stateMutability": "view",
      "type": "function",
      "constant": true
    },
    {
      "inputs": [
        {
          "internalType": "uint256",
          "name": "amount",
          "type": "uint256"
        },
        {
          "internalType": "address payable",
          "name": "to",
          "type": "address"
        }
      ],
      "name": "createTransfer",
      "outputs": [],
      "stateMutability": "nonpayable",
      "type": "function"
    },
    {
      "inputs": [],
      "name": "getTransfers",
      "outputs": [
        {
          "components": [
            {
              "internalType": "uint256",
              "name": "id",
              "type": "uint256"
            },
            {
              "internalType": "uint256",
              "name": "amount",
              "type": "uint256"
            },
            {
              "internalType": "address payable",
              "name": "to",
              "type": "address"
            },
            {
              "internalType": "uint256",
              "name": "approvals",
              "type": "uint256"
            },
            {
              "internalType": "bool",
              "name": "sent",
              "type": "bool"
            }
          ],
          "internalType": "struct Wallet.Transfer[]",
          "name": "",
          "type": "tuple[]"
        }
      ],
      "stateMutability": "view",
      "type": "function",
      "constant": true
    },
    {
      "inputs": [
        {
          "internalType": "uint256",
          "name": "id",
          "type": "uint256"
        }
      ],
      "name": "approveTransfer",
      "outputs": [],
      "stateMutability": "nonpayable",
      "type": "function"
    }
  ],
  "bytecode": "0x60806040523480156200001157600080fd5b506040516200141f3803806200141f8339818101604052810190620000379190620001dd565b81600090805190602001906200004f9291906200005f565b508060018190555050506200033b565b828054828255906000526020600020908101928215620000db579160200282015b82811115620000da5782518260006101000a81548173ffffffffffffffffffffffffffffffffffffffff021916908373ffffffffffffffffffffffffffffffffffffffff1602179055509160200191906001019062000080565b5b509050620000ea9190620000ee565b5090565b5b8082111562000109576000816000905550600101620000ef565b5090565b6000620001246200011e846200026b565b62000237565b905080838252602082019050828560208602820111156200014457600080fd5b60005b858110156200017857816200015d888262000182565b84526020840193506020830192505060018101905062000147565b5050509392505050565b600081519050620001938162000307565b92915050565b600082601f830112620001ab57600080fd5b8151620001bd8482602086016200010d565b91505092915050565b600081519050620001d78162000321565b92915050565b60008060408385031215620001f157600080fd5b600083015167ffffffffffffffff8111156200020c57600080fd5b6200021a8582860162000199565b92505060206200022d85828601620001c6565b9150509250929050565b6000604051905081810181811067ffffffffffffffff82111715620002615762000260620002d8565b5b8060405250919050565b600067ffffffffffffffff821115620002895762000288620002d8565b5b602082029050602081019050919050565b6000620002a782620002ae565b9050919050565b600073ffffffffffffffffffffffffffffffffffffffff82169050919050565b6000819050919050565b7f4e487b7100000000000000000000000000000000000000000000000000000000600052604160045260246000fd5b62000312816200029a565b81146200031e57600080fd5b50565b6200032c81620002ce565b81146200033857600080fd5b50565b6110d4806200034b6000396000f3fe60806040526004361061007f5760003560e01c80639377d7111161004e5780639377d71114610135578063cacca4a014610176578063d3650fb81461019f578063ffabc673146101dc57610086565b80631703a0181461008b5780632f65142c146100b65780634c12fa47146100e15780636cb3e8ef1461010a57610086565b3661008657005b600080fd5b34801561009757600080fd5b506100a0610219565b6040516100ad9190610e96565b60405180910390f35b3480156100c257600080fd5b506100cb61021f565b6040516100d89190610e19565b60405180910390f35b3480156100ed57600080fd5b5061010860048036038101906101039190610b54565b61030d565b005b34801561011657600080fd5b5061011f6104db565b60405161012c9190610df7565b60405180910390f35b34801561014157600080fd5b5061015c60048036038101906101579190610b2b565b610569565b60405161016d959493929190610eb1565b60405180910390f35b34801561018257600080fd5b5061019d60048036038101906101989190610b2b565b6105dc565b005b3480156101ab57600080fd5b506101c660048036038101906101c19190610b2b565b610a42565b6040516101d39190610ddc565b60405180910390f35b3480156101e857600080fd5b5061020360048036038101906101fe9190610aef565b610a81565b6040516102109190610e3b565b60405180910390f35b60015481565b60606002805480602002602001604051908101604052809291908181526020016000905b8282101561030457838290600052602060002090600502016040518060a001604052908160008201548152602001600182015481526020016002820160009054906101000a900473ffffffffffffffffffffffffffffffffffffffff1673ffffffffffffffffffffffffffffffffffffffff1673ffffffffffffffffffffffffffffffffffffffff168152602001600382015481526020016004820160009054906101000a900460ff16151515158152505081526020019060010190610243565b50505050905090565b6000805b600080549050811015610399573373ffffffffffffffffffffffffffffffffffffffff166000828154811061036f577f4e487b7100000000000000000000000000000000000000000000000000000000600052603260045260246000fd5b9060005260206000200160009054906101000a90505050808061039190610fe1565b915050610311565b5060019050806103de576040517f08c379a00000000000000000000000000000000000000000000000000000000081526004016103d590610e76565b60405180910390fd5b60026040518060a0016040528060028054905081526020018581526020018473ffffffffffffffffffffffffffffffffffffffff16815260200160008152602001600015158152509080600181540180825580915050600190039060005260206000209060050201600090919091909150600082015181600001556020820151816001015560408201518160020160006101000a81548173ffffffffffffffffffffffffffffffffffffffff021916908373ffffffffffffffffffffffffffffffffffffffff1602179055506060820151816003015560808201518160040160006101000a81548160ff0219169083151502179055505050505050565b6060600080548060200260200160405190810160405280929190818152602001828054801561055f57602002820191906000526020600020905b8160009054906101000a900473ffffffffffffffffffffffffffffffffffffffff1673ffffffffffffffffffffffffffffffffffffffff1681526020019060010190808311610515575b5050505050905090565b6002818154811061057957600080fd5b90600052602060002090600502016000915090508060000154908060010154908060020160009054906101000a900473ffffffffffffffffffffffffffffffffffffffff16908060030154908060040160009054906101000a900460ff16905085565b6000805b600080549050811015610668573373ffffffffffffffffffffffffffffffffffffffff166000828154811061063e577f4e487b7100000000000000000000000000000000000000000000000000000000600052603260045260246000fd5b9060005260206000200160009054906101000a90505050808061066090610fe1565b9150506105e0565b5060019050806106ad576040517f08c379a00000000000000000000000000000000000000000000000000000000081526004016106a490610e76565b60405180910390fd5b60001515600283815481106106eb577f4e487b7100000000000000000000000000000000000000000000000000000000600052603260045260246000fd5b906000526020600020906005020160040160009054906101000a900460ff1615151461074c576040517f08c379a000000000000000000000000000000000000000000000000000000000815260040161074390610e56565b60405180910390fd5b60001515600360003373ffffffffffffffffffffffffffffffffffffffff1673ffffffffffffffffffffffffffffffffffffffff168152602001908152602001600020600084815260200190815260200160002060009054906101000a900460ff161515146107ba57600080fd5b6001600360003373ffffffffffffffffffffffffffffffffffffffff1673ffffffffffffffffffffffffffffffffffffffff168152602001908152602001600020600084815260200190815260200160002060006101000a81548160ff0219169083151502179055506002828154811061085d577f4e487b7100000000000000000000000000000000000000000000000000000000600052603260045260246000fd5b9060005260206000209060050201600301600081548092919061087f90610fe1565b9190505550600154600283815481106108c1577f4e487b7100000000000000000000000000000000000000000000000000000000600052603260045260246000fd5b90600052602060002090600502016003015410610a3e576001151560028381548110610916577f4e487b7100000000000000000000000000000000000000000000000000000000600052603260045260246000fd5b906000526020600020906005020160040160009054906101000a90505050600060028381548110610970577f4e487b7100000000000000000000000000000000000000000000000000000000600052603260045260246000fd5b906000526020600020906005020160020160009054906101000a900473ffffffffffffffffffffffffffffffffffffffff1690506000600284815481106109e0577f4e487b7100000000000000000000000000000000000000000000000000000000600052603260045260246000fd5b90600052602060002090600502016001015490508173ffffffffffffffffffffffffffffffffffffffff166108fc829081150290604051600060405180830381858888f19350505050158015610a3a573d6000803e3d6000fd5b5050505b5050565b60008181548110610a5257600080fd5b906000526020600020016000915054906101000a900473ffffffffffffffffffffffffffffffffffffffff1681565b60036020528160005260406000206020528060005260406000206000915091509054906101000a900460ff1681565b600081359050610abf81611059565b92915050565b600081359050610ad481611070565b92915050565b600081359050610ae981611087565b92915050565b60008060408385031215610b0257600080fd5b6000610b1085828601610ab0565b9250506020610b2185828601610ada565b9150509250929050565b600060208284031215610b3d57600080fd5b6000610b4b84828501610ada565b91505092915050565b60008060408385031215610b6757600080fd5b6000610b7585828601610ada565b9250506020610b8685828601610ac5565b9150509250929050565b6000610b9c8383610bde565b60208301905092915050565b6000610bb48383610d56565b60a08301905092915050565b610bc981610f99565b82525050565b610bd881610f99565b82525050565b610be781610f87565b82525050565b610bf681610f87565b82525050565b6000610c0782610f24565b610c118185610f54565b9350610c1c83610f04565b8060005b83811015610c4d578151610c348882610b90565b9750610c3f83610f3a565b925050600181019050610c20565b5085935050505092915050565b6000610c6582610f2f565b610c6f8185610f65565b9350610c7a83610f14565b8060005b83811015610cab578151610c928882610ba8565b9750610c9d83610f47565b925050600181019050610c7e565b5085935050505092915050565b610cc181610fab565b82525050565b610cd081610fab565b82525050565b6000610ce3601e83610f76565b91507f7472616e736665722068617320616c7265616479206265656e2073656e7400006000830152602082019050919050565b6000610d23601583610f76565b91507f6f6e6c7920417070726f76657220616c6c6f77656400000000000000000000006000830152602082019050919050565b60a082016000820151610d6c6000850182610dbe565b506020820151610d7f6020850182610dbe565b506040820151610d926040850182610bc0565b506060820151610da56060850182610dbe565b506080820151610db86080850182610cb8565b50505050565b610dc781610fd7565b82525050565b610dd681610fd7565b82525050565b6000602082019050610df16000830184610bed565b92915050565b60006020820190508181036000830152610e118184610bfc565b905092915050565b60006020820190508181036000830152610e338184610c5a565b905092915050565b6000602082019050610e506000830184610cc7565b92915050565b60006020820190508181036000830152610e6f81610cd6565b9050919050565b60006020820190508181036000830152610e8f81610d16565b9050919050565b6000602082019050610eab6000830184610dcd565b92915050565b600060a082019050610ec66000830188610dcd565b610ed36020830187610dcd565b610ee06040830186610bcf565b610eed6060830185610dcd565b610efa6080830184610cc7565b9695505050505050565b6000819050602082019050919050565b6000819050602082019050919050565b600081519050919050565b600081519050919050565b6000602082019050919050565b6000602082019050919050565b600082825260208201905092915050565b600082825260208201905092915050565b600082825260208201905092915050565b6000610f9282610fb7565b9050919050565b6000610fa482610fb7565b9050919050565b60008115159050919050565b600073ffffffffffffffffffffffffffffffffffffffff82169050919050565b6000819050919050565b6000610fec82610fd7565b91507fffffffffffffffffffffffffffffffffffffffffffffffffffffffffffffffff82141561101f5761101e61102a565b5b600182019050919050565b7f4e487b7100000000000000000000000000000000000000000000000000000000600052601160045260246000fd5b61106281610f87565b811461106d57600080fd5b50565b61107981610f99565b811461108457600080fd5b50565b61109081610fd7565b811461109b57600080fd5b5056fea2646970667358221220b7051a67e615fd63155c02d413fa859cca5260c897707addb588ff9bb6d60d8664736f6c63430008000033",
  "immutableReferences": {},
  "source": "pragma solidity >=0.4.22 <0.9.0;\npragma experimental ABIEncoderV2;\n\n\ncontract Wallet{\n    \n    address[]public approvers;\n    uint public quorum;\n    \n    struct Transfer{\n        uint id;\n        uint amount;\n        address payable to;\n        uint approvals;\n        bool sent;\n    }\n    \n   Transfer[] public transfers;\n    mapping (address =>mapping(uint=>bool)) public approvals;\n    \n    constructor(address[]memory _approvers, uint _quorum) {\n        approvers=_approvers;\n        quorum = _quorum;\n    }\n    \n    modifier onlyApprover(){\n        bool allowed = false;\n        for (uint i=0;i<approvers.length; i++){\n            if(approvers[i] == msg.sender){\n                allowed == true;\n            }\n        }\n        require(allowed =true, 'only Approver allowed');\n        _;\n    }\n\nfunction getApprovers() external view returns (address[]memory){\n    return approvers;\n}\n\nfunction createTransfer(uint amount, address payable to) external onlyApprover{\n    transfers.push(Transfer(\n      transfers.length,\n      amount,\n      to,\n      0,\n      false)\n      );\n}\n function getTransfers() external view returns (Transfer[]memory){\n    return transfers;\n}\nfunction approveTransfer(uint id) external onlyApprover{\n    require(transfers[id].sent == false, 'transfer has already been sent');\n    require (approvals[msg.sender][id] ==false);\n    \n    approvals [msg.sender][id] = true;\n    transfers[id].approvals ++;\n    \n    if(transfers[id].approvals >= quorum){\n        transfers[id].sent == true;\n        address payable to = transfers[id].to;\n        uint amount = transfers[id].amount;\n        to.transfer(amount);\n    }\n}\n\n receive() external payable{} \n    \n}\n\n\n",
  "sourcePath": "/Users/anastasiazaytseva/Desktop/wallet1/contracts/Wallet.sol",
  "compiler": {
    "name": "solc",
    "version": "0.8.0+commit.c7dfd78e.Emscripten.clang"
  },
  "schemaVersion": "3.4.1",
  "updatedAt": "2021-06-30T16:11:56.553Z",
  "networkType": "ethereum",
  "devdoc": {
    "kind": "dev",
    "methods": {},
    "version": 1
  },
  "userdoc": {
    "kind": "user",
    "methods": {},
    "version": 1
  }
}